:020000040800F2
:10000000206A00205D020008CB1A0008CB19000806
:10001000C91A0008550500083D3600080000000018
:100020000000000000000000000000009D0100082A
:10003000C905000800000000F9010008A91D00081A
:1000400077020008770200087702000877020008AC
:10005000770200087702000877020008770200089C
:10006000770200087702000877020008770200088C
:10007000770200087702000877020008770200087C
:10008000770200087702000877020008770200086C
:10009000770200087702000877020008770200085C
:1000A000770200087702000877020008770200084C
:1000B000770200087702000877020008770200083C
:1000C000770200087702000877020008770200082C
:1000D000770200087702000877020008770200081C
:1000E000770200087702000877020008770200080C
:1000F00077020008770200087702000877020008FC
:1001000077020008770200087702000877020008EB
:100110007702000877020008751E000877020008C1
:1001200077020008770200087702000877020008CB
:1001300077020008770200087702000877020008BB
:10014000770200087702000877020008CD1A00083D
:10015000770200087702000877020008770200089B
:10016000770200087702000877020008770200088B
:1001700077020008770200087702000800000000FC
:100180007702000877020008DFF80CD000F044F98D
:10019000004800476D3B0008206A00202C4B19687E
:1001A0000868B0E8F04F80F30988BFF36F8F4FF015
:1001B000000080F3118870470000000008480068C4
:1001C000006880F308884FF0000080F3148862B65E
:1001D00061B6BFF34F8FBFF36F8F00DF00BF00BF6B
:1001E00008ED00E0DFF80C00016841F470010160E7
:1001F000704700BF88ED00E0EFF30980BFF36F8F19
:10020000134B1A681EF0100F08BF20ED108A20E96A
:10021000F04F106009B44FF0500080F31188BFF325
:100220004F8FBFF36F8F04F0B3FB4FF0000080F3EC
:10023000118809BC19680868B0E8F04F1EF0100F6B
:1002400008BFB0EC108A80F30988BFF36F8F704746
:1002500084000020EFF305807047000006488047C7
:1002600006480047FEE7FEE7FEE7FEE7FEE7FEE79B
:10027000FEE7FEE7FEE7FEE7591E000889010008D9
:100280002DE9F05F0546002092469B4688460646CB
:10029000814640241BE0284641464746224600F05E
:1002A00072F853465A46C01A914110D31146184667
:1002B000224600F059F82D1A67EB01084F462246F6
:1002C0000120002100F050F817EB00094E41201EDC
:1002D000A4F10104DFDC484631462A464346BDE826
:1002E000F09F40EA01039B0703D009E008C9121FF1
:1002F00008C0042AFAD203E011F8013B00F8013BE0
:10030000521EF9D27047D2B201E000F8012B491E0B
:10031000FBD270470022F6E710B513460A460446A2
:100320001946FFF7F0FF204610BD30B505462A46B6
:100330000B4612F8010B13F8014B08B1A042F8D09C
:100340001CB1002802D06D1CF1E7284630BD70B505
:10035000064603F099F9046805460A220021304652
:1003600000F021F82C6070BD202A04DB203A00FA4E
:1003700002F1002070479140C2F1200320FA03F3FC
:10038000194390407047202A04DB203A21FA02F0FA
:100390000021704721FA02F3D040C2F120029140BF
:1003A0000843194670472DE9F04791460F468046AD
:1003B0000446002614F8015B2DB100F03FF80068F8
:1003C000405DC007F6D12B2D02D02D2D18D0641E14
:1003D0004A463946204600F035F827B13968A1422F
:1003E00001D1C7F8008071054FF002040BD54042DF
:1003F000002803DD03F048F90460A007BDE8F0879A
:1004000046F48066E4E70028F8DA03F03DF904607A
:100410006FF00040F2E70000064C074D06E0E06890
:1004200040F0010394E8070098471034AC42F6D33B
:10043000FFF7AEFEE454000804550008004870477A
:10044000C45400082DE9F05F824600780027154665
:100450008B460AF10104B946302801D09DB113E062
:1004600014F8010B0127782803D0582801D045B192
:100470000AE00DB1102D07D10027102514F8010B4B
:1004800002E0082500E00A250026B0460EE005FB44
:10049000080005FB06F1012701EB10461FFA80F862
:1004A000B6F5803F00D3B94614F8010B294600F099
:1004B00018F80028EBDABBF1000F05D00FB1641E6D
:1004C00000E05446CBF80040B9F1000F06D003F02D
:1004D000DBF802210160C81EBDE8F09F48EA064033
:1004E000FAE73A2800D2303820F02002412A01D31E
:1004F000A2F13700884201D34FF0FF30704770B54A
:100500008C1810F8015B15F0070301D110F8013BBE
:100510002A1106D110F8012B03E010F8016B01F845
:10052000016B5B1EF9D12B0705D40023521E0DD49D
:1005300001F8013BFAE710F8013BCB1A921C03E0EB
:1005400013F8015B01F8015B521EF9D5A142D8D323
:10055000002070BDFEE700207047002070470000BB
:1005600010B500220449054801F0F4FD0449034890
:1005700001F0EAFD002010BDC01200201C02002086
:10058000C00A002010B50146034801F0DDFD024815
:1005900001F0BEFD002010BD1C020020094A10B56C
:1005A000D2F89022D2F814220AB1012010BD0A46D6
:1005B0000146044801F0CEFDBDE81040014801F0BD
:1005C00027BE00001C0200207047704770B504462B
:1005D00000F0F0F80546601C02D00448007804449E
:1005E00000F0E8F8401BA042FAD370BD7400002070
:1005F0002DE9F84F00224FF0010803254FF00F0EB0
:100600000B6808FA02F42340A3426ED14E68012E13
:1006100005D0022E03D0112E01D0122E12D18668E1
:100620004FEA420C05FA0CF7BE43CF6807FA0CF705
:10063000374387604668A6430C79C4F3001494409E
:1006400034434460C668570005FA07FC8C6826EA04
:100650000C06BC403443C4604C68022C01D0122C00
:1006600013D1D40800EB8404A346D4F82090540797
:100670004FEAD46A0EFA0AF629EA06090E6906FA62
:100680000AF646EA0906CBF8206006680C7926EAE5
:100690000C0604F00304BC40344304604C68E400DE
:1006A00065D5364C266846F480462660246822F0DC
:1006B000030604F480440094314C3444A446D4F836
:1006C00008489607370F0EFA07F6B4432D4EB0428E
:1006D00001D1002624E02C4EB04201D101261FE0BA
:1006E0002A4EB04202D102261AE040E0284EB04223
:1006F00001D1032614E0274EB04201D104260FE0B9
:10070000254EB04201D105260AE0244EB04201D167
:10071000062605E0224EB04201D1072600E0082659
:10072000BE402643CCF808681E4E34684F689C4390
:10073000FF0300D51C4334601A4C241D26684F6803
:100740009E43BF0300D51E432660164E083634680C
:100750004F689C43FF0200D51C433460114E0C3699
:1007600034684F689C43BF0200D51C433460521C60
:10077000102AFFF445AFBDE8F88F0000443802406E
:100780000030014000000240000402400008024026
:10079000000C024000100240001402400018024009
:1007A000001C0240003C01400AB18161704709040D
:1007B000FBE70000014880687047000074000020DB
:1007C00002488168027811448160704774000020FB
:1007D0000B4810B5016841F400710160016841F4F3
:1007E00080610160016841F480710160032000F0C4
:1007F0008DF8002000F006F800F03EF8002010BD53
:10080000003C024010B5014688B00022362000F0BE
:100810005DF8362000F04CF813480024016841F0E0
:1008200010010160006805A900F0100006906846FC
:1008300000F0C6FD00F0EAFD0C494000B0FBF1F10C
:100840000C480B4A491E026040F2E732C0E903241B
:10085000C0E9011400F0CAFF10B1012008B010BDBA
:10086000044800F0DFFFF9E74038024040420F0043
:1008700000100040C01A00200C4882B0016841F40A
:1008800080410160006800F4804000900748001F2C
:10089000016841F0805101600068002200F0805042
:1008A00000900F21901E02B000F010B844380240B2
:1008B000002809DB00F01F0201219140400980005F
:1008C00000F1E020C0F8001170470000F0B40E4BBA
:1008D0001B680C46C3F30223C3F10705042D00D99E
:1008E0000425191D072901D2002300E0DB1E012683
:1008F00006FA05F1491E214099409E40761E164099
:100900003143F0BC02F0B0BE0CED00E0064900F04F
:10091000070208684FF6FF03184040EA0220034A26
:1009200010430860704700000CED00E00000FA057D
:1009300070470068416200207047F0B50368586A4C
:1009400039B19C6A4FF4827600EB144400204D1EAE
:100950000AE040EA024098620FE006EB8007DF59A8
:10096000401C04EB1744C0B2A842F6D344EA02404C
:100970004FF4807202EB810158500020F0BDD0F896
:10098000040401F098BEC1EBC10200EB8202D0F872
:100990000404926C01F0EBBDC1EBC10200EB8202DA
:1009A000D0F80404D2F8082201F044BED0F80404C0
:1009B00001F083BE70B504460B0601F00F00C0EBDA
:1009C000C00104EB81014FF001024FF0000503D597
:1009D00081F83D203C3103E081F8FD5101F5FE71C5
:1009E000087094F8BC03012808D084F8BC23206860
:1009F00002F0DAF984F8BC53002070BD022070BD0B
:100A000070B5044601F00F006268904201D90120E0
:100A100070BD0B0601F00F01C1EBC10104EB8101B8
:100A20004FF001024FF0000503D581F83D203C3125
:100A300003E081F8FD5101F5FE718D70087094F8A6
:100A4000BC03012808D084F8BC23206802F088FB8E
:100A500084F8BC53002070BD022070BD01F00F016E
:100A6000C1EBC10100EB8100D0F8140270472DE901
:100A7000F04104460F0601F00F00C0EBC00104EB8B
:100A800081014FF001064FF0000503D581F83D606C
:100A90003C3103E081F8FD5101F5FE7108708A6078
:100AA000CB704A7802B1C880022B00D10D7194F846
:100AB000BC03012809D084F8BC63206802F0C4F8A4
:100AC000284684F8BC53BDE8F0810220FBE770B5EE
:100AD0000C4601F00F05C5EBC50100EB8101C1F823
:100AE0001032C1F808220023C1F8143281F8FD3118
:100AF00081F8FC51036901F5FE71012B00D10A61F7
:100B00002207027C006803D002F082FB002070BD47
:100B100002F06EFAFAE770B504460D4601F00F00D8
:100B20006168884201D9012070BD29064FF0000696
:100B30004FF0010207D5C0EBC00104EB810181F841
:100B40003D203C3107E0C5EBC50104EB810181F894
:100B5000FD6101F5FE718A70087094F8BC030128EC
:100B600007D084F8BC23206802F026FB280702D0B7
:100B700007E0022070BD217C04F57172206802F04C
:100B8000C3FA84F8BC63002070BD70B50C4601F058
:100B90000F05C5EBC50100EB81010B658A640023DD
:100BA0004B65012381F83D3001F83C5F0369012B5F
:100BB00000D10A612207027C006803D002F028FB02
:100BC000002070BD02F014FAFAE700002DE9FC5F86
:100BD00005680446284602F044FC00287ED12068BF
:100BE00002F06BFC002879D0206802F066FC8007D8
:100BF00004D52068416901F002014161206802F0DA
:100C00005CFC010304F571704FF0010A4FF0080B12
:100C1000009075D50026206802F02EFC0746DFF80C
:100C200008946BE0F80767D0F1B2206802F03DFC51
:100C30008046C00707D005EB4611C1F808AB314626
:100C4000204600F049FF5FEA087032D52068016C49
:100C500000EB46100191D0F8081B2269012A019A85
:100C60000FD0F24B9A4214D1090403D54FF400413E
:100C7000C0F8081B204600F0C9FA206901280FD0EF
:100C800013E04A4505D9090403D54FF40041C0F8E3
:100C9000081B204600F0BAFA01984845EDD804E058
:100CA00020680121009A02F02FFA05EB4611C1F8E5
:100CB00008BB5FEAC86004D505EB46111020C1F8F7
:100CC000080B5FEA88600ED52069012804D12068EE
:100CD0000121009A02F018FA202100E0A1E105EBC1
:100CE0004610C0F8081B5FEA884005D505EB4610A2
:100CF0004FF40051C0F8081B7F08761C002F91D1DB
:100D0000206802F0DAFB40034FF000095FD520684D
:100D100002F0ABFB0746002657E0F80753D0F1B2CC
:100D2000206802F0B0FB8046C00726D006F00F0214
:100D30000AFA02F0D5F834288243C5F8342805EBC6
:100D40004610C0F808A92069012807D1C6EBC600E3
:100D500004EB8000D0E9112111448164F1B22046F6
:100D6000FFF711FE2069012807D136B9206D20B99F
:100D700020680121009A02F0C7F95FEA087003D5E4
:100D800005EB4611C1F808B95FEAC86004D505EB68
:100D900046111020C1F808095FEA486004D505EB48
:100DA00046104021C0F808195FEA887004D505EBA9
:100DB00046100221C0F808195FEA086003D53146E1
:100DC000204600F0F7FE7F08761C002FA5D1206892
:100DD00002F073FB002811DAD5F8040820F00100B6
:100DE000C5F8040894F8F40301282BD0204600F03D
:100DF000F1F92068416901F000414161206802F089
:100E00005CFB00050BD5D5F80808C00702D02046CA
:100E100000F024FA2068416901F400614161206812
:100E200002F04BFBC00461D5D5F8040820F00101A5
:100E3000C5F804181021206802F0F4FA00214FF6DA
:100E40007F321AE084F8F49300212046FFF770FD0A
:100E5000CFE700BF05EB4110C0F80829D0F80039F2
:100E600023F40013C0F80039C0F8082BD0F8003B79
:100E700023F40013C0F8003B491C60688842E9D89D
:100E8000D5F81C0840F00111C5F81C18206B00288B
:100E900028460DD0D0F8840840F00B00C5F884082F
:100EA000D5F8440840F00B012846C5F844180DE079
:100EB000D0F8140842F22B010843C5F81408D5F8FD
:100EC000100840F00B012846C5F81018D0F80008AB
:100ED00020F4FE61C5F80018217C2068009A02F019
:100EE00013F92068416901F480514161206802F0E2
:100EF000E4FA800415D5206801F0E6FE206802F0CF
:100F0000A3FAE06000F07CFA0146227B206802F040
:100F10000FFB204600F048F92068416901F40051B8
:100F20004161206802F0C9FAC00634D520688169A1
:100F300021F0100181612F6A07F00F00C0EBC000A3
:100F400004EB8006C7F3434006F5FE76022802D084
:100F5000062811D01AE047F6F070074216D0C7F302
:100F60000A1217462846F16802F0ABFAF0683844D6
:100F7000F060B069384408E008222846009902F081
:100F8000A0FAB069C7F30A110844B0612168886902
:100F900040F010008861206802F08FFA000707D542
:100FA000204600F01BF92168486900F008004861FC
:100FB000206802F082FAC00208D50021204600F025
:100FC00037F82168486900F480104861206802F011
:100FD00074FA800208D50021204600F02DF821681F
:100FE000486900F400104861206802F066FA400089
:100FF00007D52046FFF7C3FC2068416901F0804116
:101000004161206802F059FA40070AD52068456816
:10101000680702D52046FFF7C9FC206841682943CC
:101020004160BDE8FC9F00000A30544F0A31544F24
:10103000D0F8040401F090BBD0F8040401F08EBB9A
:101040002DE9F0418AB0040005D094F8BD0326686C
:10105000002520B108E001200AB0BDE8F08184F845
:10106000BC53204600F05EF8032084F8BD03F06B0B
:10107000C00500D42561206801F0B4FF04F110011F
:10108000282288466846FFF72CF994E80F0001F003
:1010900035FE0226C8BB0021206802F020FA00209D
:1010A00001270EE0C0EBC00104EB810181F83D7027
:1010B00001F83C0FC880CD708D60CD60401CC0B27F
:1010C0004D6161688142EDD8002011E0C0EBC001A4
:1010D00004EB810181F8FD5181F8FC0181F8FF5199
:1010E000C1F80452C1F80852401CC0B2C1F81052F5
:1010F00061688142EAD8282241466846FFF7F1F844
:1011000094E80F0001F0A8FE10B184F8BD63A2E7D7
:1011100084F8385084F8BD73206801F091FE0020F7
:101120009AE7000010B586B0044614216846FFF720
:10113000F1F82068B0F1A04F2FD1194800210268C2
:1011400042F001020260006800F0010005904FF4D7
:10115000C05000900220CDE90101032003900A2035
:10116000049069460F48FFF743FA0D48001D0168D7
:1011700041F0800101600A481430016841F4804167
:1011800001600068002200F48040059005214320A2
:10119000FFF79CFB4320FFF78BFB06B010BD000060
:1011A000303802400000024070B50446C068012596
:1011B00070B1022801D0FFF708FA2946D4F80404D8
:1011C00001F01DFBD4F80404BDE8704001F0DDBA65
:1011D0000025F2E7D0F8040401F0FFBAD0F80404C7
:1011E00001F001BB10B5044690F8BC0301280BD0F8
:1011F000012084F8BC0384F83810206802F086F9D6
:10120000002084F8BC0310BD022010BDD0F80424D7
:1012100000F57171104601F0FEBA10B50446006881
:1012200094F8BC13012906D0012184F8BC13A16AEB
:10123000012902D008E0022010BDA169012903D0D4
:10124000816B41F480318163206801F0EDFD2068FD
:1012500002F0D2F8002084F8BC0310BD10B504469B
:10126000D0F8040401F016FB2068D0F8001E41F00D
:101270000101C0F8001E206A002804D0024801685D
:1012800041F00601016010BD10ED00E02DE9F047CE
:101290000E46050065D0DFF81481D8F80000F7B2DB
:1012A00000F00F00B04207D288F80070D8F80000B4
:1012B00000F00F00B04254D128683D4C810712D590
:1012C000400703D5206840F4E050206028780007EC
:1012D00003D5206840F4604020602068A96820F0B1
:1012E000F000084320602878C0072DD03049686896
:1012F0000839012812D0022813D0032811D0096818
:10130000890700292DDA216821F0030101432160BA
:10131000FFF750FA814641F2883A0EE009688903E6
:10132000EFE709688901ECE7FFF744FAA0EB090150
:10133000514502D90320BDE8F0872068696800F0B4
:101340000C00B0EB810FEFD1D8F80010404601F04F
:101350000F01B14207D90770006800F00F00B042DA
:1013600001D00120E7E72878400705D52068E96823
:1013700020F4E050084320602878000706D5206854
:10138000296920F4604040EAC100206000F04EF876
:101390002168084AC1F30311515CC840064908603E
:1013A00006480068FFF72EFA0020C4E7003C024020
:1013B00008380240285400088000002078000020EF
:1013C0000F2202600C4A136803F0030343601368A2
:1013D00003F0F0038360136803F4E053C360126802
:1013E0004FF4E05303EAD20202610448006800F0BF
:1013F0000F0008607047000008380240003C0240BF
:10140000014800687047000080000020044805493A
:1014100000680968044AC1F38221515CC8407047E2
:10142000800000200838024038540008154810B5E4
:10143000006810F00C02144813D04110042A0FD099
:10144000082A0ED10F4C241F2268236802F03F02A5
:101450005B0207D52068C0F38810A0FB010106E0FD
:10146000084610BD2168C1F38811A1FB00010023CB
:10147000FEF706FF2168C1F30141491C4900B0FB9A
:10148000F1F010BD083802400024F4002DE9F84FB7
:10149000040076D02078DFF838A3CE4DC00749D0BD
:1014A000DAF800105046C1F38101012908D0006824
:1014B000C0F3810002280AD1281D0068400206D529
:1014C0002868800336D560680028E2D032E0606882
:1014D000B0F5803F10D0B0F5A02F286810D020F4D0
:1014E00080302860286820F4802028606068A0B1DF
:1014F000FFF760F906460CE0286840F48030F4E716
:1015000040F480202860F7E7FFF754F9801B642837
:1015100073D828688003F7D50CE0FFF74BF906462F
:1015200005E000BFFFF746F9801B6428F0D8286863
:101530008003F7D42078DFF8A08280074FF00009FD
:101540003ED5DAF80010504611F00C0F09D00068B3
:10155000C0F3810002280BD19D48001F00684002A3
:1015600006D42868800715D5E068012809D111E064
:10157000E068B8B10120C8F80000FFF71BF9064683
:1015800005E020E1FFF716F9801B0228C0D8286883
:101590008007F7D52868216920F0F80040EAC100EB
:1015A00028600DE0C8F80090FFF704F9064604E053
:1015B000FFF700F9801B02281FD828688007F7D49E
:1015C0002078000722D5824E844861696C3671B15B
:1015D00001210160FFF7EEF8074604E0FFF7EAF8A3
:1015E000C01B022809D830688007F7D50EE0C0F884
:1015F0000090FFF7DFF8074605E082E0FFF7DAF832
:10160000C01B02287DD830688007F7D420784007B7
:1016100068D5DFF8BCB100270BF1380BDBF8000010
:10162000C0000BD4DBF8001041F08051CBF8001063
:10163000DBF80000012700F080500090684E306811
:10164000C00510D4306840F480703060FFF7B2F805
:10165000009005E0FFF7AEF80099401A022850D834
:101660003068C005F6D55A4EA068683601280FD0FC
:101670000528306810D020F001003060306820F07C
:1016800004003060A068B8B1FFF794F800900FE054
:10169000306840F00100F4E740F004003060F7E704
:1016A000FFF788F80099411A41F28830814266D8E4
:1016B00030688007F4D50EE0FFF77CF8009007E073
:1016C000FFF778F80099411A41F28830814256D8E4
:1016D00030688007F4D42FB1DBF8001021F080517E
:1016E000CBF80010A069D0B3DAF800205146C2F35D
:1016F0008102022A4AD00228484607D0C8F8600072
:1017000000E03CE0FFF756F804463BE04746C8F8E7
:101710006000FFF74FF8064605E000BFFFF74AF804
:10172000801B02282BD828688001F7D4D4E9070150
:101730000843A16A2B4A490802EB0141626A41EA67
:101740008211084394F82C1040EA01612048001FE0
:10175000016001203866FFF72DF8044605E034E00B
:10176000FFF728F8001B022809D828688001F7D560
:101770002BE000BFFFF71EF8001B022802D9032050
:10178000BDE8F88F28688001F4D41EE00128F7D066
:101790000868E26900F48001914214D1226A00F0E5
:1017A0003F0191420FD147F6C071626A01409142F8
:1017B00009D1A26A00F44031914204D1E16A00F0FB
:1017C0007060884201D00120DAE70020D8E70000ED
:1017D000083802400038024000004742800E47426D
:1017E000007000400000FFFF7047704710B5040014
:1017F00003D094F83D0010B107E0012010BD002097
:1018000084F83C00204600F00CF8022084F83D00EB
:10181000211D206800F034FB012084F83D000020E9
:1018200010BD70470168CA6842F00102CA600068D2
:10183000816801F00701062903D0016841F0010128
:10184000016000207047704770B504460068016968
:101850004FF00005C943890715D4C168C9438907FA
:1018600011D4E91E0161012020772068806980077A
:10187000204602D0FFF7E7FF04E000F098F820468A
:1018800000F096F8257720680169C943490717D405
:10189000C168C943490713D46FF0040101610220F4
:1018A00020772068806910F4407F204602D0FFF73F
:1018B000CAFF04E000F07BF8204600F079F82577B5
:1018C00020680169C943090716D4C168C9430907DB
:1018D00012D46FF008010161042020772068C069EC
:1018E0008007204602D0FFF7AEFF04E000F05FF86B
:1018F000204600F05DF8257720680169C943C906D4
:1019000017D4C168C943C90613D46FF0100101612F
:10191000082020772068C06910F4407F204602D05C
:10192000FFF791FF04E000F042F8204600F040F895
:10193000257720680169C943C90708D1C168C9432F
:10194000C90704D1891E0161204600F033F82068E0
:101950000169C943090609D4C168C943090605D408
:101960006FF0800101612046FFF73EFF20680169AA
:10197000C943490609D4C168C943490605D46FF073
:1019800040010161204600F01FF820680169C94349
:1019900089060BD4C168C943890607D46FF02001BA
:1019A00001612046BDE87040FFF71FBF70BD704762
:1019B0007047000000680349884201D1FEF700BF6C
:1019C00070470000001000407047FEE7F0B50023AC
:1019D0000A24302537261F4611E000BFB4EB107FE4
:1019E00002D905EB107C01E006EB107C01F813C076
:1019F00001EB430C00015B1C8CF80170DBB29342DD
:101A0000ECD3F0BD70B586B014216846FEF782FCB9
:101A100016480024016841F080010160016801F06E
:101A200080010591016841F008010160016801F041
:101A300008010591016841F00101016000680C4E48
:101A400000F001004FF480550590002229463046F1
:101A5000FEF7AAFE01200095CDE901046946304653
:101A60000394FEF7C5FD06B070BD0000303802409B
:101A7000000C024010B500220F49104800F050FD44
:101A800008B1FEF7A2FD0E490C4800F029FF08B18D
:101A9000FEF79BFD0B49094800F04EFB08B1FEF72D
:101AA00094FD064800F072FF002803D0BDE8104006
:101AB000FEF78BBD10BD0000140000201C020020AA
:101AC000D801002064000020FEE770470148FFF7BE
:101AD0007DB80000B80400202DE9F04104460068FC
:101AE0000E46016C00EB4615D5F8080B276920233C
:101AF0004FF40042012F08D02C4FB9424FD10104BE
:101B000049D500BFC5F8082B4DE0DFF8A4C05FEA57
:101B1000007E04F5717711D5614503D9000401D524
:101B2000C5F8082B2046FFF771FB3A4601212068D3
:101B300001F0EAFA0820C5F8080B34E05FEA806E8D
:101B400002D5C5F8083B2EE010F0280F2BD16145D7
:101B500001D90004D6D4C6EBC60004EB8000D5F84A
:101B6000102BD0F80412C2F312028A1AC0F8142201
:101B7000D0F808221144C0F80812F1B22046FEF74E
:101B80000BFF86B9D4F8100268B93A4601212068E3
:101B900001F0BAFA07E0800601D5C5F8083BF1B2BA
:101BA0002046FEF7F9FE0020BDE8F0810A31544FCF
:101BB0000A30544F2DE9F84F0E46C1EBC60100EB39
:101BC000810481460568D4E914103C34884202D966
:101BD0000120BDE8F88F081AA168814200D20846AA
:101BE000C01C870805EB46181BE000BFA0EB010AEC
:101BF000A068504500D282460AF10300870899F890
:101C0000100000901FFA8AF3F2B22846E16801F052
:101C100003FDE16801EB0A00E060A16901EB0A0045
:101C2000A061D8F8180980B2B84205D3D4E90501FB
:101C3000814201D20028D9D1D4E90501884208D8CF
:101C400006F00F0101208840D5F834188143C5F80B
:101C500034180020BDE7000008B50A480849D0E95B
:101C6000002380680A64C1E91130009006A104488D
:101C700001F0E6FCBDE8084040210148FEF78EBCBB
:101C8000001B0020107AFF1F253038782530387867
:101C9000253038780A000000FFF7ECFE4FF47A7424
:101CA000204601F0C5FFFBE7184F194C194E4FF4C1
:101CB000805520880028FCD100F046F916A1134871
:101CC000FEF733FB20B1B81DFEF741FB608008E052
:101CD00013A10E48FEF729FB38B1F81DFEF737FBBC
:101CE000A08040210948FEF715FB01222946304615
:101CF000FEF75AFD608801F09BFF0022294630461E
:101D0000FEF752FDA08801F093FFD2E7C00A002041
:101D100000000020000C02406C65646F6E3D000006
:101D20006C65646F66663D004FF001084FF48057A4
:101D3000164D4FF47A764FF00009154C00F004F977
:101D400014A11648FEF7F1FA90B1A4F80080012220
:101D500039462846FEF728FD304601F069FF00228B
:101D600039462846FEF720FD304601F061FFE5E7E1
:101D70000BA10A48FEF7D9FA0028DFD0A4F800909A
:101D800040210648FEF7C6FAD8E70000000C0240E2
:101D90000000002073746F7000000000C00A002073
:101DA000737461727400000010B5502080F31188C4
:101DB000BFF34F8FBFF36F8F03F05EF918B1044983
:101DC0004FF080500860002080F3118810BD0000A3
:101DD00004ED00E030B593B030216846FEF79AFA82
:101DE00014210CA8FEF796FA19480025016841F065
:101DF00080510160006800F0805011901548016822
:101E000041F4804101600068022400F48040119098
:101E100001200090000401908001CDE906400420DB
:101E20000890A820CDE9090407200B906846FFF729
:101E30002DFB0CA90F2081E831004FF4A0500F902A
:101E4000E002109005210CA8FFF720FA13B030BD76
:101E500040380240007000400548016841F47001BC
:101E6000016003494FF0006080390860704700004E
:101E700088ED00E00148FFF7E7BC0000C01A002031
:101E8000F0B50268254C264D264E274F274B4FF0C4
:101E9000804CA04209D0604507D0A84205D0B0428E
:101EA00003D0B84201D0984204D122F0700E4A68A3
:101EB00042EA0E02A0421BD0604519D0A84217D0BA
:101EC000B04215D0B84213D0984211D0184DA84254
:101ED0000ED0184DA8420BD0174DA84208D0174D70
:101EE000A84205D0164DA84202D0164DA84203D1F3
:101EF00022F44075CA682A434D6922F080022A43C1
:101F000002608A68C2620A688262A04201D0984276
:101F100001D10969016301214161F0BD0000014067
:101F20000004004000080040000C00400004014094
:101F300000400140004401400048014000180040BA
:101F4000001C0040002000400020074908E000BFBE
:101F5000A2F14103192B01D820320A54401CC0B20F
:101F60000A5C002AF4D17047C00A00202DE9F04134
:101F7000D0F89832D0F89022DAB101EB810400EB6E
:101F800084040025E6694EB1C1EBC10703EB87036A
:101F90005B6CB6FBF3F703FB176323B1C2F8145273
:101FA0000020BDE8F08100231A46E56100F07BFCCB
:101FB000F6E70220F5E770B50546D0F8904200F04C
:101FC00087FBC4F80C02D5F8900248B1D5F89412FA
:101FD000D4F80402CA6804F503719047002070BD6C
:101FE000022070BD70B504460026812100F0B6FACB
:101FF000002501212046E56200F0B0FA822120464A
:10200000C4F8585100F0AAFA2564D4F8900248B1F7
:10201000D4F8940204F5247440688047206801F0E5
:102020007DFD2560304670BD10B5D0E9A44159B1A1
:1020300094F80002FF2807D08B6894F8012221460B
:102040009847FF2084F80002002010BD0A2101807B
:10205000004870470001002043210180004870477C
:102060005001002043210180004870470C010020EE
:102070004321018000487047940100202DE9F04180
:1020800004460026007C4FF40077012590B34023DE
:1020900002228121204600F063FB4023E5620222F8
:1020A0000121204600F05CFB082303228221204608
:1020B000C4F8585100F054FB4FF40770256401F048
:1020C00081FDC4F89002F8B10546D4F89402006886
:1020D00080470020C5F81402C5F81802207CD5F806
:1020E000042298B140230121204600F045FB3046F0
:1020F000BDE8F081FFE73B4602228121204600F047
:102100002FFB3B46E562CAE70126F0E73B46EAE7DC
:1021100010B5D0F8901269B1027C002AD1F80422DF
:1021200005D04023012100F027FB002010BD4FF413
:102130000073F7E7022010BD02460220002902D0FA
:102140000020C2F894127047D0F89002C0F8041230
:1021500000207047D0F89002C0F81022C0F8081292
:10216000002070472DE9FC410546D0F89072002010
:102170008DF80000ADF80400064608780C4610F013
:10218000600121D020293BD1E288AAB10006607805
:1021900007D5D5F894128B6839469847E2883946B6
:1021A00026E087F80002A07987F80102E288394624
:1021B000284600F06AF828E0D5F8941260780022EA
:1021C0008B682146984720E0607820B10A2809D022
:1021D0000B2815D110E095F87402032810D10222C3
:1021E00001A905E095F87402032809D10122694686
:1021F000284600F064F808E095F87402032804D03B
:102200002146284600F036F802263046BDE8FC811B
:1022100010B5D0F89012A1B1D1F814220AB1012062
:1022200010BD0122C1F81422D1F810220263B1F8C6
:10223000102293B2D1F80822812100F034FB002053
:1022400010BD022010BD10B5D0F88C225268904706
:10225000002010BD134610B50A46002100F08CFA8C
:10226000002010BD134610B50A46002100F01BFBEC
:10227000002010BD10B50446802100F0F9FA204678
:10228000BDE81040002100F0F3BA10B50323C0F8F8
:102290004821C0F86C32C0F84C2113460A46002190
:1022A00000F06AFA002010BD10B505210023C0F827
:1022B0006C121A46194600F05FFA002010BD10B5E6
:1022C0000223C261C0F86C32026213460A46002142
:1022D00000F0E9FA002010BD10B504210023C0F879
:1022E0006C121A46194600F0DEFA002010BD0000FC
:1022F00010B50A46024903A000F0E2F8004810BDFC
:10230000C008002043444320436F6E6669670000A5
:1023100012200880004870473400002010B50A469B
:10232000024903A000F0CCF8004810BDC00800200E
:1023300043444320496E7465726661636500000022
:1023400004200880004870473000002010B50A467D
:10235000024903A000F0B4F8004810BDC0080020F6
:1023600053544D6963726F656C656374726F6E6907
:102370006373000010B50A46024903A000F0A0F8FC
:10238000004810BDC008002053544D333220566918
:10239000727475616C20436F6D506F727400000031
:1023A00010B51A2008800A480168001D0468001D45
:1023B0000068081809D008220649FFF707FB0549FD
:1023C000042210312046FFF701FB0248801E10BD99
:1023D000107AFF1F4A000020F8B5044648880D46D1
:1023E000010A08294BD2DFE801F04A0409174A4ADA
:1023F0004048D4F88812207C0A6832E0207C02260B
:102400000028D4F88C0205D0C16A68468847014686
:10241000467041E0816AF8E7C0B206282FD2DFE8B3
:1024200000F003080D12171CD4F88812207C4A68AB
:1024300017E0D4F88812207C8A6812E0D4F8881259
:10244000207CCA680DE0D4F88812207C0A6908E074
:10245000D4F88812207C4A6903E0D4F88812207CE2
:102460008A6969469047014616E0207C38B9D4F85D
:102470008C02416B68468847F5E7207C20B12946ED
:102480002046FFF7F7FEF8BDD4F88C02016B6846D2
:102490008847014607204870BDF8000048B1EA8827
:1024A00052B1824200D90246ADF800202046FFF723
:1024B00006FFE8880028E6D12046FFF70DFFF8BDAB
:1024C00070B5002300281ED00446002502E06D1CD4
:1024D000EDB2641C2678002EF9D1022404EB4504E9
:1024E00014801278CA545B1C0322CA5400245B1C5B
:1024F00006E0CA545B1CDAB28C54521CD3B2401CA6
:102500000278002AF5D170BD01004FF0000004D020
:10251000012901D0022901D0022070470120704713
:1025200010B580B1D0F88C3213B10023C0F88C32D2
:1025300009B1C0F88812012180F87412027000F00D
:10254000CBF8002010BD022010BD10B5D0F89802C5
:10255000FEF756FABDE81040FFF7D6BF10B5D0F829
:102560009802FEF727FABDE81040FFF7CDBF2DE92E
:10257000F0411746044651B1D4F88C0242691AB1B1
:1025800094F87402032851D00220BDE8F081D4F8F9
:102590006C32002504F11400022B03D0042B3AD036
:1025A000C3B33CE0D0E903639E4207D9F11AC1608E
:1025B0008AB239462046FFF755FE12E08068B0FB2C
:1025C000F3F103FB110199B9984211D3D4F87012B9
:1025D00088420DD2002211462046FFF743FEC4F880
:1025E000705200231A461946204600F0C5F816E03E
:1025F000D4F88C02C16829B194F87402032801D17F
:10260000204688478021204600F032F92046FFF717
:102610004BFE04E0FFE78021204600F029F994F802
:102620007802012804D184F8785201E020469047CE
:102630000020AAE770B51546044649B1D4F88C02CB
:1026400082691AB194F87402032830D0022070BD58
:10265000D4F86C1204F5A070032902D005291ED00D
:1026600027E0D0E903218A420BD9531AC3600846F8
:10267000834200D303469AB229462046FFF7EAFD7B
:1026800017E0D4F88C02016929B194F87402032888
:1026900001D1204688472046FFF71EFE09E00020B2
:1026A0000146C4F86C02204600F0E2F801E0204642
:1026B0009047002070BD0020704710B5012180F8C0
:1026C0007412D0F88C22017952689047002010BD16
:1026D000D0F89802FEF7C2B910B5017839BB154998
:1026E0000222C1F80404C0F898124FF0A04008601C
:1026F000042048600020C1E90320C1E906200862E7
:102700004862C86208630846FEF79AFC08B1FDF704
:102710005CFF80210748FEF70CF9402200210548A4
:10272000FEF70BF9802201210248FEF706F900208E
:1027300010BD0000B80400200A0601F07F01D0F8A7
:102740009802C1EBC10100EB810002D590F83E0078
:10275000704790F8FE0170470020704700207047D6
:1027600010B51C461346D0F898022246FEF77FF9B2
:10277000BDE81040FFF7C8BE10B5D0F89802FEF7CC
:10278000A6F9BDE81040FFF7BFBE70B500220446B1
:1027900040231146FFF7E4FF40260125C4F85061AD
:1027A0003346002280212046C4F84451FFF7D8FF69
:1027B0006662A56184F874520020C4F86C026060FF
:1027C000C4F87C02D4F8900228B1D4F88C0200211D
:1027D000426820469047002070BD90F8751280F83E
:1027E00074120020704710B590F87412032904D1B8
:1027F000D0F88C12C96901B18847002010BD01745E
:102800000020704710B5D0F89802FEF7EBFCBDE849
:102810001040FFF779BE70B5044600F520700546FC
:1028200000F04AF80120C4F86C02B4F88602C4F83B
:10283000700294F8800210F01F010AD001290DD017
:10284000022910D000F08001204600F011F800208D
:1028500070BD2946204600F09EF8F8E7294620463C
:1028600000F0CAF9F3E72946204600F01DF9EEE72B
:1028700010B5D0F89802FEF74EF9BDE81040FFF70A
:1028800043BE10B5D0F89802FEF7C7FCBDE8104073
:10289000FFF73ABE90F8741280F87512042180F8A0
:1028A00074120020704710B5D0F89802FEF76DF949
:1028B000BDE81040FFF728BE0A7802704A784270DF
:1028C0008A78CB7802EB032242800A794B7902EBBB
:1028D000032282808A79C97902EB0121C180704785
:1028E0000246002011B1C2F88C12704702207047D6
:1028F00010B5D0F88C2202241AB11268904700B9A2
:102900000024204610BD000070B50E461E4D89788B
:1029100004462970012931D894F8740202280BD09A
:1029200003280FD031462046FFF7A4FC2978204623
:10293000BDE87040FFF787BCD9B10320616084F81F
:10294000740209E071B16068884212D0C1B22046B9
:10295000FFF779FC297861602046FFF7C9FF02285C
:102960000CD006E0022084F8740220466160FFF774
:102970006AFC2046BDE87040FFF7AEBC31462046F9
:10298000BDE87040FFF776BCFC00002010B5FFF7F3
:1029900078FF002010BD2DE9F0410A78002612F0E2
:1029A000600208D0202A01D0402A70D1D0F88C22B1
:1029B000926890476DE04B78002201250A2B66D281
:1029C000DFE803F0405D6557650805652C29FFF7D2
:1029D00003FD5EE004468888D8B9C888C8B948882D
:1029E000802816D200F07F0794F87402032810D0D4
:1029F00084F8767239462046FFF704FF2046FFF739
:102A00006BFC1FB1022084F8740242E084F8745217
:102A10003FE020463BE0FFF777FF3AE0CB88012B11
:102A200035D190F87432012B04D0022B02D0032B45
:102A30002DD104E08260012200F1080116E001229C
:102A4000011D13E090F87422012A03D0022A01D05C
:102A5000032A1CD1CA88022A19D1C560D0F87C1279
:102A600009B10321C160022200F10C01FFF727FC2C
:102A70000FE0498801290CD1C0F87C5211E090F890
:102A80007432012B08D0022B06D0032B04D0FFF7A1
:102A9000F1FB3046BDE8F08149880129F9D1C0F841
:102AA0007C22FFF719FCF4E72DE9F0410A460446C1
:102AB00010780027097910F060030AD0202B01D08C
:102AC000402B50D1D4F88C02114683682046984799
:102AD0008FE0C0F34110012806D05078D0B3012810
:102AE0002AD003283FD107E0D4F88C02114683682E
:102AF0002046BDE8F041184794F87402022802D03D
:102B0000032872D10AE071B380296ED02046FFF706
:102B1000AFFE80212046FFF7ABFE6AE0508838B94F
:102B200031B1802904D0D08810B92046FFF7A0FE2B
:102B30002046FFF7D1FB5CE094F874020228E2D053
:102B4000032852D1508898BB4806F1D02046FFF7A1
:102B5000FCFCEDE7FFE794F874020026022803D09E
:102B6000032842D112E040E009B180293DD1080696
:102B700001F07F0000EB800004EB800101D51431EF
:102B800001E001F5A07102220E602AE0080601F0C2
:102B90000F0000EB800004EB80000AD5806920B3B1
:102BA00001F07F0000EB800004EB800514350BE0A2
:102BB0001FE0D0F84401C0B101F07F0000EB8000BD
:102BC00004EB800505F5A07541B1802906D02046AB
:102BD000FFF7B2FD10B10120286000E02E60022254
:102BE00029462046FFF76BFB03E011462046FFF71E
:102BF00041FB3846BDE8F08170B5054608780C46C3
:102C000010F0600003D0202801D0402816D195F89C
:102C10007402012803D0022801D003280ED12079A4
:102C200001280BD8D5F88C02826828469047E188A5
:102C3000014306D12846FFF74FFB02E02846FFF785
:102C400019FB002070BD000070B50A78012302F066
:102C50000F054E78AB401B4CD0F81C58012E17D0F6
:102C600045EA0343C0F81C3800EB4210D0F8002BB3
:102C700012040BD4D0F8002B0B89C978C3F30A03D4
:102C80001A4344EA81410A43C0F8002B002070BD7A
:102C90009BB21D43C0F81C5800EB4210D0F800391D
:102CA0001B04F3D4D0F800390D89C978C5F30A059F
:102CB00089042B4341EA82510B432343C0F8003976
:102CC000E4E7000000800010D0F800196FF30A015B
:102CD000C0F80019D0F80818C1F34101022905D144
:102CE000D0F8001941F00301C0F80019D0F8041819
:102CF00041F48071C0F804180020704770B5044694
:102D000006990A9E049D0D98012916D0E06840F0AE
:102D10004000E060204600F02BF8A16B1EB321F4C8
:102D20008031A163012D07D1A16841F00601A160A6
:102D3000A16841F02001A16070BDA16B21F4803138
:102D4000A163E168094A1140E160E16821F44011A2
:102D5000E160012803D1E06840F48010E060204683
:102D600000F006F8DEE741F48031DAE7BFFFBDFF8F
:102D700001220C4902E0521C8A420BD80369002B45
:102D8000F9DA026942F001020261012204E0521CF8
:102D90008A4201D9032070470369DB07F7D100207D
:102DA00070470000400D030030B50B784D780122CC
:102DB00003F00F0402FA04F4012DD0F83C5817D0A8
:102DC00025EA0444C0F83C48D0F81C48097801F0D2
:102DD0000F018A4024EA0241C0F81C1800EB43109E
:102DE000D0F8001B0E4A1140C0F8001B002030BD77
:102DF000A4B2A543C0F83C58D0F81C48097801F0AB
:102E00000F018A4091B28C43C0F81C4800EB43107C
:102E1000D0F80019034A1140C0F80019E6E7000095
:102E20000078F3EF007833EC10B5D0F8041821F0F7
:102E30000201C0F804180320FDF7C8FB002010BDF4
:102E400010B5D0F8041841F00201C0F804180320AE
:102E5000FDF7BCFB002010BD2DE9F04F0025DDE99A
:102E60000BCB0E460446DDF84090099F28462946C4
:102E700004EB8002C2F80411401C0F28F8D3B9F10A
:102E8000000F204618D0006820F400122260A06BCA
:102E900040F40022A26308468846C4F8000ED4F825
:102EA00000182046C4F80018BCF1010F10D0D0F86B
:102EB000001841F0030110E0806B40F40012A2639F
:102EC000A06B20F40022A263A06B20F48022E1E733
:102ED000D0F800180BB141F00101C0F80018102122
:102EE00000F0A0FA00B10125204600F08BFA00B1F5
:102EF00001254046C4F81088C4F81488C4F81C881A
:102F000000214FF000634FF090484FF67F3A14E0F5
:102F100004EB4112D2F800C9BCF1000F06DA11B17E
:102F2000C2F8008904E0C4F8003901E0C2F80009E1
:102F3000C2F81009C2F808A9491C8E42E8D800213D
:102F400015E000BF04EB4112D2F800CBBCF1000F3A
:102F500006DA11B1C2F8008B04E0C4F8003B01E0CE
:102F6000C2F8000BC2F8100BC2F808AB491C8E4225
:102F7000E8D8D4F8101821F480722146C4F810283B
:102F8000012F08D1134AC1F83028D1F83018124A5D
:102F90001143C4F83018A0616FF0804060611FB920
:102FA000A06940F01000A061A0690C490843A0612D
:102FB000BBF1000F03D0A06940F00800A061B9F197
:102FC000010F03D1A06906490843A0612846BDE866
:102FD000F08F0000000180000300010000383C80F9
:102FE00004000040816821F00101816000207047E9
:102FF00070B50D784E78434CEBB200EB4313012EC5
:103000001FD0D3F8100B6FF31200C3F8100BD3F8D6
:10301000100B2040C3F8100B486908B1886848615C
:10302000D3F8100B40F40020C3F8100BD3F8100BAA
:103030008C68C4F312042043C3F8100B012A55D046
:1030400058E04E69002ED3F8106932D06FF31206A3
:10305000C3F81069D3F810692640C3F810694E69A7
:103060008C68A64200D94C61D3F8104944F400247E
:10307000C3F81049D3F810494E69C6F31206344319
:10308000C3F81049012A22D000EB4512D2F80039CA
:1030900043F00443C2F800394A6932B3D0F8342807
:1030A000097801F00F03012199400A43C0F8342840
:1030B00026E02640C3F81069D3F8104944F40024F0
:1030C000C3F81049D3F810496FF31204D8E709691F
:1030D00019B100EB4512C2F8141900EB4510D0F8F5
:1030E000001941F00441C0F8001909E0C86808B1AE
:1030F000C3F8140BD3F8000B40F00440C3F8000BE6
:10310000002070BDFFFF07E010B5036C134CA34215
:1031100003D9D0F8003B002B1EDB0023C0F8103B86
:10312000D0F8103B43F40023C0F8103BD0F8103B1C
:1031300043F01803C0F8103BD0F8103B43F0C043F5
:10314000C0F8103B012907D1C0F8142BD0F8001BA0
:1031500041F08021C0F8001B002010BD0A30544F00
:103160004A780B78012A00EB43100BD0D0F8002BE3
:1031700022F40012C0F8002BC978032914D00229C8
:1031800012D017E0D0F8002922F40012C0F800296C
:10319000C978032901D002290CD1D0F8001941F0D7
:1031A0008051C0F8001905E0D0F8001B41F08051B3
:1031B000C0F8001B002070470A784B78D1B200EBB2
:1031C0004110012B12D0D0F8001B002906DB2AB1D8
:1031D000D0F8001B21F08041C0F8001BD0F8001B84
:1031E00041F40011C0F8001B00207047D0F800190E
:1031F000002906DB2AB1D0F8001921F08041C0F87F
:103200000019D0F8001941F40011C0F80019EBE7DB
:10321000F8B50C784F78774DE3B26FF0604600EB6D
:103220004313012F26D0D3F8104B6FF31204C3F8C9
:10323000104BD3F8104B2C40C3F8104B4C69002CAA
:1032400074D08D682C44641EB4FBF5F4D3F8105B85
:10325000A4B206EAC4463543C3F8105BD3F8105B4A
:103260008E686643C6F312042543C3F8105B012A37
:1032700071D0A6E04F691FB3D3F810796FF312072E
:10328000C3F81079D3F810792F40C3F810794F693B
:103290008D682F447F1EB7FBF5F506EAC545D3F8C8
:1032A00010693543C3F81059D3F810594E69C6F365
:1032B00012063543C3F81059CD78012D10D01BE00C
:1032C000D3F810692E40C3F81069D3F8105945F4AB
:1032D0000025C3F81059D3F810596FF3120509E00F
:1032E000D3F8105925F0C045C3F81059D3F8105938
:1032F00045F00055C3F81059012A18D000EB4413CB
:10330000D3F8004944F00444C3F80049CC78012CB8
:103310002FD04A6962B3D0F83428097801F00F033E
:10332000012199400A43C0F8342860E036E00A6978
:103330001AB100EB4413C3F81429C97801290FD13D
:10334000D0F80818C90500EB4411D1F8002903D4BE
:1033500042F0005202E030E042F08052C1F8002911
:1033600000EB4410D0F8001941F00441C0F80019F6
:103370003DE0D0F80848E405D3F8004902D444F011
:10338000005401E044F08054C3F8004900928A8A56
:1033900093B20A78C96800F03FF928E0D3F8104BDF
:1033A0008D68C5F312052C43C3F8104BD3F8104BAE
:1033B00044F40024C3F8104B59E7CA680AB1C3F8B3
:1033C000142BC97801290CD1D0F80808C005D3F80E
:1033D000000B02D440F0005001E040F08050C3F8F0
:1033E000000BD3F8000B40F00440C3F8000B0020A2
:1033F000F8BD0000FFFF07E0816841F00101816036
:1034000000207047002110220261054A491C9142A8
:1034100001D9032070470369DB06F7D40020704709
:10342000400D03000022202343EA81110161054978
:10343000521C8A4201D90320704703699B06F7D4C6
:1034400000207047400D0300D0F8080810F0060077
:1034500004D0022803D0062801D00F207047022094
:103460007047406900F001007047D0F81818D0F894
:103470001C08084080B27047D0F81818D0F81C0813
:103480000840000C704710B5D0F81038D0F8342838
:1034900001F00F0400EB4110E24002F00102D0F80D
:1034A000080943EAC212104010BD00EB4111D1F8E7
:1034B000081BD0F81408084070474169806908402B
:1034C0007047D21C10B59308002200F5805002E02E
:1034D0000468521C10C19A42FAD3084610BD10B5B8
:1034E000C26822F0C042C260012902D029B1012085
:1034F00010BDC16841F0005102E0C16841F0804157
:10350000C1603220FDF762F8002010BDD0F800281D
:1035100022F4FE62C0F80028D0F800284FF4FE63C1
:1035200003EA01110A43C0F8002800207047000098
:10353000022A3ED1264A274B0A449A4201D20F2141
:1035400038E0254A254B0A449A4201D20E2131E047
:10355000234A244B0A449A4201D20D212AE0224AEE
:10356000224B0A449A4201D20C2123E0204A214BEB
:103570000A449A4201D20B211CE01F4A1F4B0A4405
:103580009A4201D20A2115E01D4A1E4B0A449A4272
:103590000FD31D4A1D4B0A449A4201D2082109E06B
:1035A0001B4A11441B4A914201D2072102E0062125
:1035B00000E00921C26822F47052C260C2684FF470
:1035C000705303EA81210A43C26000207047000063
:1035D000405327FF00350C00401E1BFF40420F00E8
:1035E00000DC0BFF804F1200808CF9FE20D6130008
:1035F00060B6E5FE60E3160000D3CEFE40771B0008
:10360000C05BB3FEC091210000CA91FE2075380056
:10361000E05459FEE09C410010B5029C64B9DB1CEB
:103620009C0800EB0230002300F5805002E004C942
:1036300002605B1CA342FAD3002010BDFEE700002D
:103640000FB4084B10B504A902AA039800F030F893
:10365000044602A9002000F05CFA204610BC5DF888
:1036600014FB0000133B00080907090E002804DBC7
:1036700000F1E02080F80014704700F00F0000F126
:10368000E02080F8141D70470048704718020020A1
:1036900002E008C8121F08C1002AFAD1704770471B
:1036A000002001E001C1121F002AFBD17047000079
:1036B0002DE9FF4F8DB00F460546002606E0252870
:1036C0000BD0DDE90F1290476D1C761C287800287E
:1036D000F5D111B03046BDE8F08F0024A246A146D6
:1036E0000122EC4900E0044315F8013F203B02FAB7
:1036F00003F00842F7D128782A2810D06FF02F0263
:103700002878A0F13001092914D80AEB8A0102EBCC
:10371000410144F0020400EB010A6D1CF0E701CF07
:103720005FEA000A03D544F40054CAF1000A44F0E9
:1037300002046D1C28782E2817D115F8010F44F0CB
:1037400004042A280ED06FF02F022878A0F130014F
:1037500009290AD809EB890102EB410100EB0109B3
:103760006D1CF2E757F8049B6D1C28786C280FD06D
:1037700006DC4C2817D068280DD06A2814D104E044
:10378000742810D07A280FD10DE044F400140AE018
:1037900044F4801401E044F440146978814202D179
:1037A00004F580146D1C6D1C2A786E2A1FD00CDC69
:1037B000632A31D004DC002A8BD0582A11D1A3E02F
:1037C000642A68D0692A0CD165E0732A2ED004DC03
:1037D0006F2A73D0702A04D19BE0752A6FD0782AA3
:1037E0006ED01046DDE90F129047761C50E1C4F30D
:1037F0000250022806D0032809D0042801CF09D09E
:10380000066045E101CFF117C0E9006140E101CF59
:1038100006803DE106703BE117F8040B8DF80000CF
:1038200000208DF80100EB46012003E057F804BBAF
:103830004FF0FF3061074FF0000102D40DE008F1B6
:103840000101884649450FDA8045F8DB1BF808106E
:103850000029F4D108E008F1010188468142FADB31
:103860001BF808100029F6D1DDE90F23AAEB0800A8
:103870008146214600F036F9304400EB080604E0AA
:10388000DDE90F121BF8010B9047B8F10108F7D2E0
:1038900021464846F7E00A21C4F302534FF0000BDB
:1038A0000891022B04D001CFC117032B09D00AE0E5
:1038B000FF1D27F00707F7E8020108E032E01FE0EC
:1038C00020E000B2C117042B01D140B2C117031E82
:1038D00071F1000307DA4FF0000CD0EB0C006CEB39
:1038E00001012D2302E0230504D52B238DF824307C
:1038F000012303E0E30701D02023F7E7984658E0CF
:103900000A2110E010210EE010204FF0000B08906B
:103910000CE010214FF0000B44F004044FF00809B4
:10392000089103E008214FF0000B0891C4F3025303
:10393000022B04D001CF0021032B06D006E0FF1D8F
:1039400027F00707F7E8020103E080B2042B00D15B
:10395000C0B24FF0000823072BD5702A07D0DDF83E
:1039600020C08CF0100C5CEA0B0C05D00EE040235C
:103970008DF82430012308E050EA010306D03023FB
:103980008DF824308DF8252002239846DDF820C0DC
:103990008CF0080C5CEA0B0C0BD150EA010301D14E
:1039A000630706D530238DF824304FF00108A9F1C4
:1039B0000109582A04D038A20B9208AA0A920BE0F7
:1039C0003AA2F9E75B46089AFCF75AFC0B9B9B5C12
:1039D0000A9A521E0A92137050EA0102F2D10A9812
:1039E000ADEB000000F1200B600702D524F4803419
:1039F00001E04FF00109D94502DDA9EB0B0000E021
:103A0000002000EB0B0141440890AAEB010AE003FF
:103A100006D4DDE90F232146504600F063F8064442
:103A20004FF0000908E009A911F80900DDE90F12BB
:103A3000904709F10109761CC145F4DBE0030CD580
:103A4000DDE90F232146504600F04CF8064404E01F
:103A5000DDE90F1230209047761C0899481E089027
:103A60000029F5DC08E00A980A990078491C0A91B7
:103A7000DDE90F129047761CBBF10001ABF1010BA1
:103A8000F1DC21465046DDE90F2300F019F8064429
:103A90006D1C1BE6092801003031323334353637CE
:103AA000383961626364656600000000303132338A
:103AB000343536373839414243444546000000002A
:103AC0002DE9F041044600251E461746880404D41B
:103AD00005E039462020B0476D1C641EF9D5284604
:103AE000BDE8F0812DE9F041044600251E469046D0
:103AF000C80301D5302700E02027880404D505E05D
:103B000041463846B0476D1C641EF9D52846BDE8CD
:103B1000F0810A68531C0B601070704710B50028C4
:103B200021D0114B0022001F196803E0814203D805
:103B30000A4649680029F9D152B11368841A9C4297
:103B400004D1006818441060104602E0506000E0A4
:103B5000186039B102680B1A934203D10B681A44FA
:103B600002604968416010BD10020020FCF730FE81
:103B7000FEF730F9FDF746FFFEF76EF800F072F839
:103B80000B4A00210B4800F0A9F80B4C084A002111
:103B9000A0602432094800F0A1F8054AE0604832EC
:103BA0000021074800F09AF8206100F077F8FEE75E
:103BB000BC530008991C000800000020A91C000844
:103BC000291D0008F0B50B30154D20F00701002429
:103BD000144A0FE003688B420BD38B4205D95E1A5F
:103BE00043184768C3E9006700E04368136002C0F8
:103BF00004E0021D10680028ECD12046002802D104
:103C0000286808B10020F0BD064A07481060074A3E
:103C1000121A22F00702C0E9002401202860D7E729
:103C200014020020100200202464002020660020DE
:103C300010B5EFF3058149B9EFF3108131B90849A7
:103C40000968022905D1EFF3118111B16FF0050464
:103C500003E0002408B100F0E7FD204610BD00009D
:103C6000D4000020EFF3058058B9EFF3108040B97D
:103C700009490868022801D030B109E0EFF311804A
:103C800030B16FF0050070470120086000207047D8
:103C90004FF0FF3070470000D400002010B5EFF364
:103CA000058060B9EFF3108048B90B490868022815
:103CB00002D0012806D00BE0EFF3118040B16FF085
:103CC000050010BD0220086000F016FE002010BDA7
:103CD0004FF0FF3010BD0000D4000020F0B585B0DB
:103CE0004FEA01034FF00004EFF305810394A1BBF9
:103CF000EFF3108189BB21490968022902D1EFF352
:103D0000118151BB48B3802618218DF8104004ADB5
:103D100042B3176807B13D4697691FB139467F1E08
:103D2000382F02D21779FF0702D0002005B0F0BD6E
:103D3000576907B1BE08D2F808C0BCF1000F0DD01A
:103D4000D4685C2C18D312693AB137B18DE80610EB
:103D50003246294601F051F903900DE0D7685FB96A
:103D600012694AB903AACDE90012B2B2294601F09C
:103D700017F9012800D003940398D7E7D400002056
:103D80002DE9F041134C0F46054666692068001D79
:103D900000F01AFC681C07D137B12168BDE8F0417A
:103DA0000D48091D00F060BC20683544B5424560EF
:103DB000216805D2A068BDE8F041091D00F03CBCB7
:103DC0006068091D00F038FC206B854200D2256335
:103DD000BDE8F081840000203C2000202DE9F04166
:103DE000054600F04DFC2D4C2069401C20612068E8
:103DF0002B4F10B1E06930B32BE02560206901281A
:103E000027D1002606EB860007EB800000F006FCB9
:103E1000761C382EF6D3234800F000FC21481430DD
:103E200000F0FCFB1F48283000F0F8FB1D483C3038
:103E300000F0F4FB1B48503000F0F0FB19486060C4
:103E40001430A06005E02068E96AC06A884200D8A2
:103E50002560E06A401CE0626864E86AA169884203
:103E600000D9A06100EB800007EB8000291D00F065
:103E7000FBFB00F025FCE06900280CD02068E96A13
:103E8000C06A884207D208494FF080500860BFF3EB
:103E90004F8FBFF36F8FBDE8F081000084000020DA
:103EA0008C1B0020EC1F002004ED00E038B500F072
:103EB000E7FB104CA068C8B90F4800F0AFFB0E48F4
:103EC000143000F0ABFB0C482060143060600A4BEB
:103ED00000202833009003F1500210210A2000F046
:103EE00003FEA06010B105A100F068FCBDE83840F9
:103EF00000F0E6BBC000002050200020546D72513D
:103F00000000000030B4026C0B46002A0BD0C168E0
:103F10001144C1604468A14201D30168C16030BC52
:103F20001846FCF7DEB930BC70472DE9F041856BCF
:103F3000174604460026026C82B1C7B1E068FCF760
:103F4000D0F9E168206C091AE1602268914202D23E
:103F50006168081AE060022F16D017E02068A8B93F
:103F6000606801F0EDF80646002060600EE0A06891
:103F7000FCF7B7F9216CA0680844A060616888422A
:103F800004D32068A06001E005B16D1E6D1CA5631F
:103F90003046BDE8F08110B5044690F8590058B19C
:103FA00001280CD002280FD0502080F31188BFF3D5
:103FB0004F8FBFF36F8FFEE7206B00F095FB20461D
:103FC000BDE8104000F090BB10BD000010484FF459
:103FD0007051420706D0C01D0D4920F00700411A5C
:103FE000C1F570510B4A00230144C2E900030839AE
:103FF000103A21F0070111604B600B600B1AC0E909
:10400000001393604FF000405360D0607047000091
:1040100020280020E8000020144E154CA6F29C47F2
:104020004FF08058DFF84C9012E000BF00F028FB02
:10403000F068C568281D00F0C7FA2069401E20619D
:10404000E068401EE06000F03BFB2846FFF7A3FF5E
:10405000E0680028EAD138680128F9D9C9F8008059
:10406000BFF34F8FBFF36F8FF2E7000028200020CF
:104070008400002004ED00E070B51D46049C51B1A1
:10408000C4F80020C4E90F010121204600F060FDC2
:1040900084F84C5070BD2460F4E72DE9F0470E46DB
:1040A000DDE909841746824691009946089DA522BC
:1040B000206BFCF728F96FF00301206B01EB8701FF
:1040C000084420F00707780707D0502080F31188B4
:1040D000BFF34F8FBFF36F8FFEE72218315C82F87A
:1040E0003410315C11B1401C1028F6D3002684F83E
:1040F0004360382D00D33725E562C4E91356201DEF
:1041000000F097FA04F1180000F093FA2461C5F169
:1041100038006462A061666584F858604A4651467A
:10412000384600F03BFA2060B8F1000F01D0C8F823
:104130000040BDE8F087000030B5114900E01146AD
:104140000A688242FBD34B685C18844203D1406802
:1041500018444860084643681C18944209D1084C2A
:10416000103C2468A24209D052681A4442600A688E
:1041700012680260814200D0086030BD0460F9E737
:10418000E800002070B5002441600B4D00619142B1
:1041900006D8D11A8269914206D2011D686807E0EB
:1041A0009A4203D2994201D3012403E0011D2868F9
:1041B00000F042FA204670BDC000002010B5044651
:1041C00000F05EFAA06B28B15FF0000400F078FA0E
:1041D000204610BD0124F9E730B589B0304D55E0D7
:1041E0000498002806DADDE90601059A904704984C
:1041F00000284BDB069C606910B1201D00F0E4F93B
:1042000002A800F0B9F8024604980A283ED2DFE876
:1042100000F00505053D263705053D260598A169F1
:10422000034601442046FFF7ADFF00B3616A204614
:104230008847E069012829D1002000900598A169EC
:10424000002342181946204601F084F878B950201E
:1042500080F31188BFF34F8FBFF36F8FFEE7059890
:10426000A06128B1811813462046FFF78BFF0DE0AF
:10427000502080F31188BFF34F8FBFF36F8FFEE79D
:1042800094F82C0010B9204600F02EFA002204A960
:10429000A86800F0AFFD0028A2D109B030BD000031
:1042A000C00000202DE9FC410F46054600F068FBE8
:1042B00001A800F061F80446019818B100F0B8FFB9
:1042C000BDE8FC81224EAFB170680068A8B300273A
:1042D000291B3A46B06800F085FA00F0A9FF0028D3
:1042E000EED11C494FF080500860BFF34F8FBFF3F1
:1042F0006F8FE5E7A542EBD800F09AFF30682746BC
:10430000C068C468201D00F05FF9E069012810D181
:10431000A0692B4641193A462046FFF733FF40B1CA
:1043200000200346014600902A46204601F012F87C
:1043300020B1616A20468847C2E707E0502080F339
:104340001188BFF34F8FBFF36F8FFEE70127BFE7E1
:10435000C000002004ED00E006484168096829B16A
:104360004168C968C9684968016370474FF0FF3107
:10437000FAE700008400002070B5054600F076FEE4
:10438000064E04463069844203D200F009F8012049
:1043900000E0002028602046346170BDC00000208D
:1043A000F8B5194D1FE0C068C4680668201D00F00C
:1043B0000BF9616A20468847E069012813D1A0699A
:1043C0003044B04206D924616060211D286800F0A5
:1043D00033F908E0002003460146009032462046AB
:1043E00000F0B8FF38B1286801680029DBD169689E
:1043F000C5E90010F8BD502080F31188BFF34F8F3E
:10440000BFF36F8FFEE70000C0000020084840683F
:10441000401C4FF0500080F3118804D0BFF34F8F41
:10442000BFF36F8FFEE7BFF34F8FBFF36F8FFEE7D2
:10443000F0000020074C2068016841B1C0680021ED
:10444000D0F80000FFF72EFFFFF7C6FEF3E70121CB
:104450000020F7E7C00000202DE9F041044600F0FD
:104460000FF994F9455004F1240609E0606A48B157
:10447000304600F0A5FE08B100F004FA6D1E6DB2E2
:10448000002DF3DC4FF0FF3684F8456000F018F99A
:1044900000F0F6F894F9445004F1100709E020699F
:1044A00048B1384600F08CFE08B100F0EBF96D1E03
:1044B0006DB2002DF3DC84F84460BDE8F04100F0FB
:1044C000FFB800002DE9F0410546002700F058FA3A
:1044D000314E306808B9FFF779FDF06805424BD1DD
:1044E000C5B3083568070ED005F00700C0F1080015
:1044F0000544680707D0502080F31188BFF34F8F21
:10450000BFF36F8FFEE72DB37068854234D8224821
:10451000103001460C6801E020460C466168A94253
:1045200002D221680029F7D131688C4224D0076873
:104530002168016060680837411B10290FD9601994
:10454000420708D0502080F31188BFF34F8FBFF38C
:104550006F8FFEE710E041606560FFF7EDFD616879
:104560007068401A7060B268904200D2B060F06823
:1045700001430020C4E9000100F05AFE780707D08B
:10458000502080F31188BFF34F8FBFF36F8FFEE78A
:104590003846BDE8F0810000D800002010B5031FA8
:1045A0004FF080741C601B1F21F001011960191F5E
:1045B000044B0B6014390A60091F6FF00202443883
:1045C0000A6010BD0D440008D0E9013201699A600B
:1045D000D0E901235A604A68824201D182684A6068
:1045E000002202610868401E0860086870470000E9
:1045F000034B036003F15C0008608020106070478B
:1046000068210020044B036003F15C0008604FF454
:104610008070106070470000C423002000F1080182
:104620004FF0FF32C0E90112C16001610021016059
:10463000704700210161704730B50B685A1C02D0E9
:1046400000F1080202E0026904E02246546825688D
:104650009D42FAD953684B6099608A605160086145
:104660000168491C016030BD42684A6093688B60F4
:1046700093685960916008610168491C0160704746
:10468000502080F31188BFF34F8FBFF36F8F0A491B
:104690004868401C486001280CD10848006810F0A8
:1046A000FF0F07D0502080F31188BFF34F8FBFF367
:1046B0006F8FFEE770470000F000002004ED00E07F
:1046C0000849486828B1401E486001D180F311882C
:1046D0007047502080F31188BFF34F8FBFF36F8F67
:1046E000FEE70000F000002070B5002827D0144D30
:1046F000A0F108046168E868014207D1502080F306
:104700001188BFF34F8FBFF36F8FFEE722683AB176
:10471000502080F31188BFF34F8FBFF36F8FFEE7F8
:104720008143616000F02CF9606869680844686042
:104730002046FFF701FDBDE8704000F079BD70BD77
:10474000D80000204FF0E02000210161816105497F
:104750004FF47A720968B1FBF2F1491E41610721F9
:10476000016170478000002010B5FBF773FD11490F
:1047700010280ED300F1E02090F8F0030A78904260
:1047800007D2502080F31188BFF34F8FBFF36F8F94
:10479000FEE709480068896800F4E060884207D9AC
:1047A000502080F31188BFF34F8FBFF36F8FFEE768
:1047B00010BD0000F00000200CED00E010B5084B2B
:1047C000002200BF53F832401CB1521C082AF9D312
:1047D00010BD43F8321003EBC201486010BD000069
:1047E0004C1B002070B515460E460446FFF748FFE7
:1047F00094F944100020491C01D184F8440094F934
:104800004510491C01D184F84500FFF759FFA06B02
:1048100028B92A46314604F1240000F051F8204618
:10482000BDE87040FFF718BE10B5020014D00F4865
:10483000806B38B1502080F31188BFF34F8FBFF3E6
:104840006F8FFEE700F09CF800211046FFF798FA02
:1048500000F0EEFC002807D105494FF080500860B9
:10486000BFF34F8FBFF36F8F10BD00008400002097
:1048700004ED00E002498A6A0260496941607047BC
:104880008400002001490120486270478400002014
:1048900010B50C4650B1094909681831FFF7CCFE34
:1048A0002046BDE810400121FFF76ABA502080F38E
:1048B0001188BFF34F8FBFF36F8FFEE78400002096
:1048C00070B514460D4668B10A4909681831FFF7FA
:1048D000CBFE0CB14FF0FF3521462846BDE87040B5
:1048E000FFF74EBA502080F31188BFF34F8FBFF30C
:1048F0006F8FFEE78400002030B587B0002403945A
:1049000005AA04A903A80494FFF772FEDDE90301D8
:104910000094CDE90110002315A11748059A00F075
:104920006CFB164D002868631FD000F0E3FC0128E3
:1049300009D0401C19D1502080F31188BFF34F8F4C
:10494000BFF36F8FFEE7502080F31188BFF34F8FC6
:10495000BFF36F8F4FF0FF3028630120E8616C6177
:1049600007B0BDE8304000F045B807B030BD0000EA
:1049700049444C4500000000194000088400002014
:104980000248816B491C816370470000840000204D
:10499000164810B5816B11B10121416210BD002193
:1049A00041628169124A01E0B9B1491E01EB8103FC
:1049B00052F82330002BF7D001EB810302EB830286
:1049C00002F1080453685B685360A34201D15B683D
:1049D0005360DA680260816110BD502080F3118855
:1049E000BFF34F8FBFF36F8FFEE7000084000020FE
:1049F0008C1B00201CB537480168374A914207D10B
:104A0000502080F31188BFF34F8FBFF36F8FFEE705
:104A100000683149491E884207D1502080F311882F
:104A2000BFF34F8FBFF36F8FFEE72C4908780190DB
:104A3000FF20087008788DF800009DF800009DF8B0
:104A4000002000F0F000904207D0502080F3118841
:104A5000BFF34F8FBFF36F8FFEE79DF80000204B31
:104A600000F0500018700720986005E09DF80020C5
:104A700052008DF80020401E9DF800201206F5D44B
:104A80009860032807D0502080F31188BFF34F8F20
:104A9000BFF36F8FFEE74FF4407098600198087085
:104AA0000C482030016841F470010160016841F058
:104AB00070410160FFF746FE00205860FBF792FB53
:104AC0000848016841F040410160FBF777FB002096
:104AD0001CBD000000ED00E071C20F4100E400E0E9
:104AE000F000002034EF00E038B5049D18B153B158
:104AF000CAB181B120E0502080F31188BFF34F8FFD
:104B0000BFF36F8FFEE7502080F31188BFF34F8F04
:104B1000BFF36F8FFEE7502080F31188BFF34F8FF4
:104B2000BFF36F8FFEE739B1502080F31188BFF3D8
:104B30004F8FBFF36F8FFEE750241C46012384F88C
:104B400046302B460094FFF797FA204638BD000008
:104B500070B50D46040025D0FFF792FDD4E90F2073
:104B6000216802FB001161600021A1632168A1603E
:104B70000A46D4E90F01401E00FB0121E1602146F5
:104B80004FF0FF3001F8440F487004F110008DB170
:104B9000FFF744FD04F12400FFF740FDFFF790FD0F
:104BA000012070BD502080F31188BFF34F8FBFF3F9
:104BB0006F8FFEE721690029F0D000F001FB00288B
:104BC000ECD004494FF080500860BFF34F8FBFF323
:104BD0006F8FE3E704ED00E02DE9FF4782B01D464B
:104BE0008A464FF00008040003D0BAF1000F08D045
:104BF00011E0502080F31188BFF34F8FBFF36F8F08
:104C0000FEE7206C38B1502080F31188BFF34F8F3E
:104C1000BFF36F8FFEE7022D0AD1E06B012807D0AA
:104C2000502080F31188BFF34F8FBFF36F8FFEE7E3
:104C300000F00EFA3F4F4FF000094FF0805648B990
:104C4000049838B1502080F31188BFF34F8FBFF321
:104C50006F8FFEE7FFF714FDA06BE16B884207D36F
:104C6000022D05D00498D0B1B8F1000F1AD01EE083
:104C70002A4651462046FFF758F9616A19B104F1F6
:104C8000240000F09DFA20B13E60BFF34F8FBFF3C8
:104C90006F8FFFF715FD012006B0BDE8F087FFF725
:104CA0000FFD22E06846FFF7E5FD4FF00108FFF732
:104CB00007FDFFF765FEFFF7E3FC94F94400401C95
:104CC00001D184F8449094F94500401C01D184F846
:104CD0004590FFF7F5FC04A9684600F027F930B1CC
:104CE0002046FFF7B9FB00F0A3FA0020D4E7FFF756
:104CF000C7FCA06BE16B884213D1FFF7E1FC04F124
:104D000010000499FFF7C4FD2046FFF7A5FB00F053
:104D10008FFA00289ED13E60BFF34F8FBFF36F8F95
:104D200098E7FFF7CDFC2046FFF796FB00F080FAEE
:104D300090E7000004ED00E02DE9F0471F469046A3
:104D40008946040003D0B9F1000F08D011E05020CB
:104D500080F31188BFF34F8FBFF36F8FFEE7206C96
:104D600038B1502080F31188BFF34F8FBFF36F8F9E
:104D7000FEE7022F0AD1E06B012807D0502080F314
:104D80001188BFF34F8FBFF36F8FFEE7FFF7ECFC87
:104D90005020EFF3118680F31188BFF34F8FBFF3DC
:104DA0006F8FA06BE16B884206D3022F04D00020E6
:104DB00086F31188BDE8F08794F945503A46494694
:104DC0002046FFF7B2F8681C04D06D1C84F84550EB
:104DD0000120EDE7606A0028FAD004F1240000F019
:104DE000EFF90028F4D0B8F1000FF1D00121C8F894
:104DF0000010EDE72DE9F747002683B08A4604004E
:104E000003D0BAF1000F08D011E0502080F31188D0
:104E1000BFF34F8FBFF36F8FFEE7206C38B1502088
:104E200080F31188BFF34F8FBFF36F8FFEE700F061
:104E30000FF9DFF8F4804FF000094FF0805748B9C0
:104E4000059838B1502080F31188BFF34F8FBFF31E
:104E50006F8FFEE7FFF714FCA56BC5B151462046E6
:104E6000FFF750F86D1EA563206950B104F11000E2
:104E700000F0A6F928B1C8F80070BFF34F8FBFF358
:104E80006F8FFFF71DFC012006B0BDE8F087059885
:104E900008B11EB106E0FFF713FC27E06846FFF7F4
:104EA000E9FC0126FFF70CFCFFF76AFDFFF7E8FBC2
:104EB00094F94400401C01D184F8449094F94500D1
:104EC000401C01D184F84590FFF7FAFB05A968461C
:104ED00000F02CF8002820460AD0FFF7BDFA00F0B9
:104EE000A7F92046FFF76AF90028B3D00020CBE7E6
:104EF000FFF764F990B104F124000599FFF7C8FCAD
:104F00002046FFF7A9FA00F093F90028A2D1C8F8CB
:104F10000070BFF34F8FBFF36F8F9BE72046FFF703
:104F20009BFA00F085F995E704ED00E02DE9F041EA
:104F30000C46050011D0C4B1FFF7A2FB174B5A690C
:104F40006E682068911B471C17D02F689B6A9F4290
:104F500019D0964217D8012410E0502080F3118810
:104F6000BFF34F8FBFF36F8FFEE7502080F31188A0
:104F7000BFF34F8FBFF36F8FFEE70024FFF7A0FB57
:104F80002046BDE8F081884205D9401A20602846B5
:104F9000FFF770FCF1E700202060DCE784000020D0
:104FA0002DE9FF5F8346DDE90E87994616468A465E
:104FB0009000FFF787FA05001CD05C20FFF782FA0B
:104FC000040014D00020256384F85900CDE9024084
:104FD000CDE900874B46324651465846FFF75DF80B
:104FE0002046FEF7FBFE012004B0BDE8F09F2846F6
:104FF000FFF77AFB4FF0FF30F6E7F0B585B0DDE95B
:105000000B640A9DA6B1DCB15C27009726630226DB
:1050100084F85960002604AFCDE90246CDE9005777
:10502000FFF73BF82046FEF7D9FE049805B0F0BD27
:10503000502080F31188BFF34F8FBFF36F8FFEE7CF
:10504000502080F31188BFF34F8FBFF36F8FFEE7BF
:105050000548C16919B1806B18B100207047012063
:10506000704702207047000084000020014840691A
:1050700070470000840000202DE9F0412E4C0027ED
:10508000A06B40B1206A401C2062606A00B1012719
:105090003846BDE8F0816669761C666113D16068A8
:1050A000006838B1502080F31188BFF34F8FBFF3F1
:1050B0006F8FFEE76068A1686160A060A06A401C15
:1050C000A062FFF749F9206BDFF87080864209D3B0
:1050D0006068006880B16068C068C56868688642BA
:1050E0000DD220632068C06A00EB800158F82100CF
:1050F0000128CAD90127C8E74FF0FF30F1E7281D82
:10510000FFF762FAA86A18B105F11800FFF75CFA18
:10511000E86AA169884200D9A06100EB800108EB30
:105120008100291DFFF7A0FAE86A2168C96A884250
:10513000CED30127CCE70000840000208C1B002088
:1051400070B504004FF0000133D01B4D2868844235
:1051500007D0502080F31188BFF34F8FBFF36F8FBC
:10516000FEE7206D38B1401E2065E36CE26A9A428A
:105170001FD040B11DE0502080F31188BFF34F8F46
:10518000BFF36F8FFEE7201DFFF71EFAE06CE062B1
:10519000C0F13800A061E06AA969884200D9A8611D
:1051A000064900EB800001EB8000211DFFF75CFA4F
:1051B0000121084670BD0000840000208C1B0020E7
:1051C00070B5C068C46854B104F118000646FFF712
:1051D000FBF9144DA86B50B13146134815E050202F
:1051E00080F31188BFF34F8FBFF36F8FFEE7201D51
:1051F000FFF7EAF9E06AA969884200D9A8610B497A
:1052000000EB800001EB8000211DFFF72DFAE06A22
:105210002968C96A884202D90120686270BD0020ED
:1052200070BD000084000020142000208C1B002092
:105230002DE9F0472C4D00242746A86B38B1FFF725
:105240001FFAA86B401EA863A86B40B146E050202F
:1052500080F31188BFF34F8FBFF36F8FFEE729698B
:10526000224E0120D1B3A6F5916980463068E0B1A5
:10527000F068C46804F11800FFF7A6F9201DFFF7D5
:10528000A3F9E06AA969884200D9A86100EB80010E
:1052900009EB8100211DFFF7E7F9E06A2968C96A77
:1052A0008842E3D3C5F82480E0E70CB1FFF754F857
:1052B0002C6A4CB14FEA0806FFF7DEFE00B16E62C1
:1052C000641EF9D100202862686A38B108490127B4
:1052D00038070860BFF34F8FBFF36F8FFFF7F0F908
:1052E0003846BDE8F087000084000020142000202C
:1052F00004ED00E010B586B0FEF7D8FD114CA068B3
:10530000B8B100200390049005AA04A903A8FFF7F0
:1053100079F9DDE9032102208DE8070000230AA1C5
:105320000B48059AFFF769FEE06010B106B0012056
:1053300010BD502080F31188BFF34F8FBFF36F8FE4
:10534000FEE70000C0000020546D72205376630019
:10535000354400082DE9FF411E46134602000A9D10
:105360004FF0000016D0144CA768002F0FD0CDE9E5
:1053700000130292062917DAFFF76AFE02284FF09F
:1053800000030FD000226946A068FFF725FC04B097
:10539000BDE8F081502080F31188BFF34F8FBFF339
:1053A0006F8FFEE72A46EEE700233246694638460D
:1053B000FFF7C2FCEBE70000C0000020D854000853
:1053C00000000000000000000000000000000000DD
:1053D0008000000018000000000000000000000035
:1053E000C854000800000000000000000000000099
:1053F0000000000080000000080000000000000025
:1054000000000000D0540008000000000000000070
:105410000000000000000000800000000800000004
:10542000000000000000000000000000000000007C
:10543000010203040607080900000000010203043A
:105440000040404040404040404041414141414097
:10545000404040404040404040404040404040404C
:1054600040050202020202020202020202020202DB
:1054700002202020202020202020200202020202E0
:105480000202909090909090101010101010101038
:105490001010101010101010101010100202020244
:1054A0000202888888888888080808080808080888
:1054B0000808080808080808080808080202020284
:1054C00040000000415400085461736B310000003B
:1054D0005461736B3200000064656661756C7454CE
:1054E00061736B0004550008000000201C020000DE
:1054F000FE040008CC5500081C02002004680000CF
:10550000A036000801141311231B0841041A4D048E
:105510001A75041AA10413F1221B081D08170403AD
:1055200009041201140202021640830440572602A5
:1055300001020301031A1A031361051B085B041A15
:1055400057041A8504192F118210037124F41AAA22
:105550000181130A0632022A40941C090243CF112A
:1055600025C03209041B01020B1305241610010586
:10557000240110090104240202052406170107056D
:10558000820308151009040133020A1D07050102F0
:10559000432C070581070938442A40072A8107114F
:1055A0002B0907440A3B0444137D201408E51F140B
:1055B00008652142081A29101A6D101AB704C11A79
:0C55C00065181A59041A71041A4D04C130
:040000050800018965
:00000001FF
